:020000040800F2
:1000000018080020D9000008E1000008E3000008FB
:1000100000000000000000000000000000000000E0
:10002000000000000000000000000000E5000008E3
:100030000000000000000000E7000008E9000008E0
:10004000EB00000800000000EB000008EB000008D7
:10005000EB000008EB000008EB000008EB000008D4
:1000600000000000EB000008EB000008EB000008B7
:10007000EB000008EB000008EB00000800000000A7
:10008000EB0000080000000000000000EB0000088A
:1000900000000000EB000008EB000008EB00000887
:1000A000EB000008EB000008EB000008C1010008AD
:1000B000EB0000080000000000000000000000004D
:1000C0000448854600F06AF800F058F800480047F8
:1000D0002108000818080020044880470448004709
:1000E000FEE7FEE7FEE7FEE7FEE7FEE71908000889
:1000F000C100000830B50B46014600202022012433
:1001000009E00D46D5409D4205D31D469540491B4B
:100110002546954040191546521E002DF1DC30BD94
:1001200003460B439B0703D009E008C9121F08C010
:10013000042AFAD203E00B780370401C491C521EBB
:10014000F9D27047D2B201E00270401C491EFBD2C6
:1001500070470022F6E710B513460A4604461946D2
:10016000FFF7F0FF204610BD0321001D401E03785D
:1001700012021A43491EF9D51046704770B5054C56
:10018000054D03E0206800198047241DAC42F9D1D9
:1001900070BD0000400F0008480F0008064C012504
:1001A000064E05E0E36807CC2B430C3C984710341F
:1001B000B442F7D3FFF788FF200F0008400F000874
:1001C0000149486809680847000000200A4888B0CB
:1001D00000880A4A8002059000200190029001A840
:1001E000039008200490009005A906A8039B00F046
:1001F00070FC00F09FFA0000E075FF1F001000087F
:100200000001000070470000CD0100081CB5044645
:10021000001D00F049FE002809D06168A0688847E9
:10022000684600F04DFC0146201D00F04DFC1CBD51
:10023000F0B58DB004460D460AA800F041FC014619
:10024000201D00F041FC69780220F3297ED1287A34
:100250002F46844E0C37012808D0002805D0696845
:100260000978022922D0022871D0A3E069680978B0
:100270000129F4D121687B4A032368460968083ABA
:100280005B0300F0FBF8684600F062FA00287DD0BE
:100290002068002546602068FF220573206880687A
:1002A000036841681846FFF74DFFD8E020684168B1
:1002B0000029ECD08168007B097909AA081A089006
:1002C000297A089B491E08A80991994200DA10462C
:1002D0000678206869688268007B1268491C1018DB
:1002E0003246FFF71DFF2068017B8919CAB20273ED
:1002F000002069460871206881684868904250D1A2
:1003000002A800F051FB039800902068029B06C8E9
:1003100005A800F0DEFB6946087D08712068FF2211
:1003200041680831416021680020087320688068B6
:10033000036841681846FFF705FF01A800F008FAB6
:1003400000282ED0287A801B401E01E033E02FE0E9
:100350004207520F811A069207916868039180192B
:10036000401C029000912068029B06C804A800F07F
:10037000B0FB6946087C08712068079942685118EB
:100380004160686807998019411800E05DE02068C5
:10039000491C8068069A0068FFF7C2FE2068069A2A
:1003A000027301A800F0DBF900284ED1387157E044
:1003B000032902D004200DB0F0BD20684168002957
:1003C00043D000216A461171017B002913D0816856
:1003D00006A800F0E9FA079800902068069B06C876
:1003E00003A800F076FB6946087B08712068027B51
:1003F00041688918416021680020496803E032782B
:100400001018C0B2761CB142F9D8C043C6B201A8D8
:1004100000F0A5F9002818D168684078B04214D1DE
:100420001148089008200990009020680D4A016842
:10043000083A02A8089B00F04CFB6946087A08714C
:1004400001A800F08CF9002801D00620B3E70025B0
:1004500004A800F0ADFA0598A060049860603D71B2
:100460000020A8E708100008B20E00080120024989
:10047000C00688607047000000ED00E0FFB581B065
:100480000126F6021F46144600960299019800F0D4
:1004900075F9019800F05CF900284CD0029800F042
:1004A000A9F8029800F08AF9244D28697F21C90033
:1004B00008432861E71918E0686902210843686168
:1004C0001F20C0062018C003800E6969C000FF22EB
:1004D000F9329143084368616869012109040843BE
:1004E0006861029800F06AF9A419A742E4D8696922
:1004F0000220814369612868800511D5286801219F
:10050000490288432860286830432860BFF34F8F32
:10051000BFF36F8F2868B0432860286808432860BD
:10052000029800F05BF86846019C029900F01CF903
:1005300068460078207005B0F0BD00000020024041
:100540000FB4F8B50A9F082006AC009007CC1E46F1
:100550003B4600F013F9069800F0FAF8002837D06F
:10056000079800F047F8079800F028F91A48016941
:100570007F22D2001143016141690122114341618F
:10058000002413E03019FFF7EFFD08990D192860DA
:10059000201D3018FFF7E8FD6860079800F00EF99D
:1005A0000D4801694908490001610834A742E9D8AA
:1005B00009484169490849004161079800F00EF86F
:1005C0006846069C079900F0CFF8684600782070CE
:1005D000F8BC08BC04B018470020024010B500F079
:1005E000EDF80348416982041143416110BD0000E8
:1005F0000020024004484169002903DA0349816070
:1006000003498160704700000020024023016745D4
:10061000AB89EFCD70B5294D0446E8698006C00F5F
:1006200015D028688006C00F11D06068002809D056
:10063000686A6268C1B2A0689047E8698006C00F26
:10064000F6D104E0686AE8698006C00FFAD1E8696B
:1006500040210006C00F002815D028680006C00FF2
:1006600011D06069A269904206D260690078A862E0
:100670006069401C606106E0286880229043286021
:10068000286808432860E8694006C00F13D028682E
:100690004006C00F0FD029622868884328600020D8
:1006A000A061606120460C3000F0FEFB002802D003
:1006B000E168206988470820286270BD0038014041
:1006C0007CB500254560856001600C3000F0F8F9CC
:1006D00004460C3C8560C5602146684600F086F9FA
:1006E00010480199416000990F4A0160106801218A
:1006F000490708431060106804210843106010681F
:100700000821084310600220D0622320D0601068C6
:10071000012108431060C8060449086004490860C4
:1007200020467CBD000000200038014080E200E04F
:1007300000E100E072B6BFF34F8F04490248C86081
:10074000BFF34F8F00BFFDE70400FA0500ED00E0A6
:100750000078002801D00020704701207047007801
:10076000002800D001207047034909698905490E16
:1007700000D00521017070470020024070B504468A
:1007800008681D46049EA84213D30121C9068A4267
:100790000FD3401B401890420BD331461046FFF751
:1007A000A9FC002905D131462846FFF7A3FC002902
:1007B00002D00520207070BD0020FBE70120034916
:1007C00000040A680242FCD1704700001020024079
:1007D00002E008C8121F08C1002AFAD170470020A1
:1007E00001E001C1121F002AFBD1704703480449F0
:1007F0001B2206C003491C2206C0704708000020C7
:10080000003801400044004002480021016041607E
:10081000704700000000002010B5FFF727FE10BD54
:10082000FFB05A48B1B00088594A80021F90AAA868
:100830000646119008230120ACAF00901FA9154671
:100840001C4612933846FFF799FF3846FFF780FFA2
:10085000002804D0294630462246FFF761FCACA8A8
:10086000FFF776FF002815D04A4A0020AAA90B5CA2
:10087000145CA34203D1401CC0B20828F7D3082857
:1008800008D1454A111F086880F3088843488160F1
:100890001068804742494A6B012002434A6340493D
:1008A00040310A6802430A603E48026818231A432E
:1008B000026005200007426A0F231B029A4342622E
:1008C000426A8B151A434262026803231B059A434E
:1008D0000260026801235B051A430260426AF0234A
:1008E0009A434262426A10231A4342620268032317
:1008F0009B049A43026002680123DB041A430260EE
:1009000008685A1110430860E1225202AFA9A3A857
:10091000FFF7D6FE0024ADA81A94159008211FA851
:100920001691199015A81B901C9420AAA3A901A8A0
:1009300000F01EFA01A80A9008A804730AA90C94F2
:1009400013A80D9400F07CF8149804901398039069
:1009500019A90FA80E9100F0B3F80EA917A800F07E
:1009600085F818980D9017980C900EA91DA800F006
:1009700027F81D9913910A981E99149141611399B2
:10098000016101A800F04CF9FBE70000E075FF1FD2
:1009900000100008B20E00080411000800ED00E08D
:1009A000001002400000014006C906C07047000068
:1009B0000149002206C07047BD090008FFF7BAFED2
:1009C000014A026041607047CD09000806490A46A5
:1009D000096D403249100818D168127CD20702D044
:1009E0000268511809680847BC0E0008014A0260F5
:1009F00041607047F909000805498A6852101018CB
:100A00000A7A4968D20702D0026851180968084773
:100A1000BC0E0008014A026041607047210A0008CC
:100A200006490A46096A1C324910081811681279E9
:100A3000D20702D00268511809680847BC0E0008A6
:100A4000014A0260416070474D0A0008064A134699
:100A5000926B2033521010185A691B7EDB0702D0AC
:100A600003689A1812681047BC0E0008014A026019
:100A700041607047790A0008064A1346926C403379
:100A8000521010185A681B7ADB0702D003689A18B4
:100A900012681047BC0E0008014A026041607047AE
:100AA000A50A0008054A93695B101818137E52695D
:100AB000DB0702D003689A1812681047BC0E0008C2
:100AC00000210160416070474A6842600968016026
:100AD000704738B5049C0094FFF732FD38BD000024
:100AE000024801682022114301607047003801402C
:100AF00030B58369024601242032002B05D0002541
:100B0000012B0CD0022B1BD11BE013787E2B18D1AC
:100B10007E2916D043681970C461846111E07E2972
:100B20000AD0C369084CA3420AD2C4694368195564
:100B3000C3695B1CC36104E002238361547000E05D
:100B40008561117030BD00000A0200007E2807D0C8
:100B50007D2805D0112803D0132801D0002070472C
:100B60000120704710B500231A4603E0841824784A
:100B7000E318521C9142F9D8D843C0B210BD0121EC
:100B80002030817070470000FFB5486883B023496A
:100B90000191009006990598FFF7E4FF07467E2132
:100BA000009801240170002515E005984019067889
:100BB0003046FFF7CBFF002807D0202046400098A2
:100BC0007D210019641C0170A4B200980019641CF6
:100BD0000670A4B26D1C0698A842E6D83846FFF706
:100BE000B5FF002807D02020474000987D2100193C
:100BF000641C0170A4B200987E2200190770641C66
:100C00000099A0B209180A70401C80B201900099A6
:100C10000398019A06C007B0F0BD00000A02000068
:100C2000F0B5044600208FB0264620360790707835
:100C300000287DD04D4801682023994301600020A1
:100C4000707001200246079000200546014614E01E
:100C5000636800289C465B5C15D00020312B1AD0BD
:100C6000332B18D05D2B16D05E2B14D00022674694
:100C70007B556D1C002A03D0491CE3698B42E7D8E1
:100C800000280DD10AE07D2B03D000200028EED0F3
:100C9000F0E70120FAE720277B40E8E7002A00D1AF
:100CA0000025FF21681E0731884246D260686D1E0C
:100CB000294605950490FFF755FF01466068425D9F
:100CC00091423AD1FF3008300C90059AFF210498E8
:100CD000043100900D910C98019203910290A2684A
:100CE000002A28D06946E0689047002823D008A849
:100CF00002A9FFF759FE21460AA8099B089AFFF7A7
:100D000043FF206800236D460B9A0A992B764569AC
:100D1000AB4207D141618918816114480168802282
:100D20001143016006A8FFF713FD002803D000E07F
:100D300003E00020079000203070B07800280BD02E
:100D40000020B0702046103000F0AEF8002806D029
:100D500021696069884702E00798002804D00020D4
:100D6000A0612068FFF7BCFE0FB0F0BD0038014065
:100D700030B587B006C00025056045600830FFF734
:100D80009FFE0446103C8560C560103005704570BC
:100D90008570214604A82568FFF77EFE0498009020
:100DA00005980190A86000986860214602A825680F
:100DB000FFF730FE02980090039801902861009898
:100DC000E8602068FFF78CFE204607B030BDF0B524
:100DD00089B00C4600216A4603910646117405A8A5
:100DE0000591079011766068012702AB032801D3B3
:100DF000012500E00025002D21D02268C01E957835
:100E0000854201D1012500E00025002D17D0107882
:100E10006A461072206840785072226890780028E4
:100E200005D0D21C009269460871052204E068468C
:100E30000091017105226946181DFFF771F9002D17
:100E40002ED0B06800282BD06846007A31798142D4
:100E500026D1A168207B091D00916B46001F1871E7
:100E6000052269460798FFF75BF9B26802A9F068A6
:100E70009047410602D000216A4611766A46A16871
:100E8000127A0A706A46A168527A4A70A1686A4664
:100E90008870A068117EC170107E001DE06000E0C7
:100EA0000027384609B0F0BD0068002800D00120B6
:100EB00070473C424C2E5349473E00000000000062
:100EC00015060008000000001506000800000000DC
:100ED000F10A0008000000007F0B0008000000007D
:100EE000F10A0008000000007F0B0008000000006D
:100EF000CF0D000800000000CF0D0008000000002A
:100F000031020008000000000D020008000000008F
:100F100031020008000000000D020008000000007F
:100F2000480F00080000002018000000D00700084B
:100F3000600F00081800002000080000DE0700080D
:100F4000C9F8FFFFA9F8FFFF000000000000000043
:100F50000000000000000000000000000000000091
:101000003C424C2E5349473E00101400020300009E
:101100000020002039400008392D0008392D000842
:10111000392D0008392D0008392D00080000000085
:10112000000000000000000000000000392D000851
:10113000392D000800000000392D0008252D000879
:10114000352D0008352D0008352D0008352D0008F7
:10115000352D0008352D0008352D0008352D0008E7
:10116000352D0008352D0008352D0008352D0008D7
:10117000352D0008152D0008352D0008352D0008E7
:10118000052D0008352D0008352D0008F52C000828
:10119000352D0008E52C0008D52C0008C52C0008CA
:1011A000B52C0008352D0008352D0008A52C0008A9
:1011B000932C0008352D0008352D0008352D00082A
:1011C00010B5064C2378002B07D1054B002B02D01D
:1011D000044800E000BF0123237010BD6800002018
:1011E0000000000084640008044B10B5002B03D0FD
:1011F0000349044800E000BF10BDC04600000000E5
:101200006C000020846400080122084B1A701A6CDC
:1012100001321A64FA22196C9200914204D300221E
:101220001A64DA680132DA607047C0468400002030
:1012300080B584B000AF0200FB1D1A700023FB6074
:10124000FB1D1B78FA689A420ED20023BB60BB6874
:10125000074A934204D8C046BB680133BB60F6E737
:10126000FB680133FB60EBE7BD4604B080BDC046C0
:101270006604000010B502F067FB0021041C04F0B6
:101280007BF800280BD00D49201C04F061F80028E1
:1012900005D0201C04F0E6FF83B2180010BD002129
:1012A000201C04F04BF800239842F6D10349201C7F
:1012B00004F058F8431E98414042EDE7EFFE7F47A7
:1012C00010B5037A002B04D00321054A13688B4321
:1012D0001360C368002B02D00C3001F0D5FC10BDA8
:1012E00010E000E0036870B51B6804001A68202352
:1012F000D169194214D01168194211D041680029EE
:101300003DD01D002368A0681B681B68596A63688C
:10131000C9B2984723681B681B68DB692B42F1D16F
:10132000802123681B681B68DA690A420CD01A689E
:101330000A4209D06069A269904225D26269127896
:101340009A626269013262614022D969114210D009
:10135000196811420DD01A6219689143196000236F
:10136000A3616361E368002B03D020000C3001F01F
:101370008BFC082223681B681B681A6270BD516AC7
:10138000D1691942FBD1CBE71A688A431A6040221F
:1013900019680A431A60D7E7036870B51B681B68B1
:1013A0009A69120716D59C698022210052021140C9
:1013B00014420DD19A6941621202520E54426241A6
:1013C00002730122016199690A439A61FF229A62BC
:1013D0000822DA619A6952070CD55A6A8169036951
:1013E0008B423BD303681B681A68802351681B0239
:1013F0000B43536003681C6823689A6992070BD5F6
:10140000C269456AFF21AA4205D2C269016A895CA4
:10141000C2690132C26199622022996911421CD0CD
:10142000DA619A69D20318D44268002A15D00122E1
:101430001968914319600423E356002B08DB1F2130
:101440000B409A400A4BDA67BFF34F8FBFF36F8FA1
:10145000010043680C318068984770BD4169CA54E7
:1014600003698269013303619342C3D3BAE7C0467B
:1014700004E100E010B5FFF7C7FE10BDF0B50B6842
:101480008BB002930B7908AE0393029B07AF0893CE
:10149000039B3A7033710023012203700400029809
:1014A000B371727100F018FD002306AD2B70039B21
:1014B00002995A00D2B22B0005A800F074FC02ABCE
:1014C0001B7B2370002B0AD12B703A000133089943
:1014D000009505A800F041FD02AB1B7B237038008E
:1014E000310000F041FC20000BB0F0BDF0B58FB032
:1014F0000792049005930B790CAA137100230E0038
:10150000096853710C91937103700393149B0599AF
:1015100003981D7801390CAB9A7981424DD9012489
:10152000002A16D11F689C715A711B7938000693E6
:1015300000F0D2FC06AB1D75069B39005A00224311
:101540000BABD2B20AA800F02EFC06AB1C7C002C20
:101550001DD109AB1D70009301230AAC20000C992A
:101560000BAA00F050FD2478002C10D1B5680BA90F
:101570006B782800AB7000F074FDAB78EA785340CC
:101580006A78AA7006AA927D9A4200D00334049B1E
:1015900007991C70039B5A0006AB9B8A5BBA8B525F
:1015A000039B059A013303939342AFD10BA80CA977
:1015B00000F0DAFB04980FB0F0BD002A17D1012427
:1015C0001F689C715A711B793800069300F084FCE7
:1015D00006AB1D75069B39005A0022430BABD2B2F5
:1015E0000AA800F0E0FB06AB1C7C002CCFD109ABB5
:1015F0001D700AAC00930023B0E770B586B00B797C
:1016000004AC050023710023086803AE52BA32808F
:1016100002AA6371A3711370210004900092280044
:101620003200023300F0B9FC3000210000F09CFBD6
:10163000280006B070BD10B502F0C8F910BD4368AF
:1016400010B50400002B05D001688068984700237E
:10165000A360636010BDF0B50B88C44A0C008BB06A
:10166000934200D144E131D8C14A934200D18CE089
:101670000DD882225200934200D177E0BD4A9342B6
:1016800000D1DAE0102B63D0002323616CE0BA4A6A
:10169000934200D10AE2B94A9342F5D18B68002BFC
:1016A00000D003E1022203680A619B68D2211A007C
:1016B0004900FC325958506C04F0CEF902F059F947
:1016C000E26803041B0E137050704DE0AC4A934265
:1016D00000D13FE226D8AB4A934200D199E1AA4A11
:1016E0009342D1D18B68002B00D0EAE10822036835
:1016F0000A619B68FC33196E5A6EE368080E187015
:101700000802000E58700804000ED9709870E36843
:10171000110E19711102090E59711104090E9971F6
:10172000DA7121E0D1221202934200D1F5E1974A09
:101730009342A9D18B68002BA6D10B6172B6BFF37F
:101740004F8F934B934ADA60BFF34F8FC046FDE74C
:101750008B68002B98D102680B615468E06800F038
:101760004DFD002800D1A0600BB0F0BD8B68002BB0
:1017700000D089E702680B615468E06800F03EFD24
:101780000028F1D00123A360EEE78B68002B00D086
:101790007AE7056808330B616B68D86800F02EFDA6
:1017A000E66800280BD130707070E3689870D870CC
:1017B000E36818715871E3689871D871D4E7C2234F
:1017C000AD685B00E858744904F046F902F0D1F8BE
:1017D000D2235B00E958243B0700E85804F03CF9A9
:1017E00002F0C7F8FC350590686F04F037FC6B49D0
:1017F00004F032F902F0BDF80690A86F04F02EFC58
:10180000664904F029F902F0B4F83B041B0E33706A
:10181000059B7770E2681B041B0E9370059BD370C9
:10182000069BE2681B041B0E1371069B5371E26852
:1018300003041B0E9371D07196E78B68002B00D0C8
:1018400022E7056808330B616B68D86800F0D6FCA6
:10185000E6680028A7D0BE23AD685B00E8584E4973
:1018600004F0FAF802F085F82B00D222FC33520083
:10187000A9580700D86F04F0EFF802F07AF8B52302
:101880005B00EA5A0233E95A3B041B0E337077704F
:10189000E56803041B0EE870AB70E368100A5A7128
:1018A0001871E3680A0A9A71D9715DE7022B00D0BA
:1018B000EAE6002203680A6148689D6800F031FD8D
:1018C00004F0CCFBD2235B00E95803F0FBFE344963
:1018D000041C03F033FD002800D045E73149201CEB
:1018E00003F040FD002800D03EE7FC356C643BE788
:1018F0008B68002B58D10C2203680A619B6839322F
:10190000FF329F5EA32252009E5EA42252009D5E83
:10191000A5225200985EA6225200995EA72252008C
:101920009A5EE36805929C4662463B041B0E137068
:101930005770E76833041B0EBB70FE70E6682B041B
:101940001B0E33717571E56803041B0EAB71E871F2
:10195000E0680B041B0E03724172059BE1681B04D7
:101960001B0E8B72059BCB72FEE6C046D06000005A
:1019700005040000D20300000260000014600000B3
:1019800033D00000E16000008161000004D300005A
:1019900000ED00E00400FA050000C842000020410C
:1019A0000000F0C10000F0410C2B00D06CE60023D9
:1019B00006680B617368D86800F020FC002800D02E
:1019C000D2E66468200000F0ACFC0500A01C00F02A
:1019D000A8FC0700201D00F0A4FC0590A01D00F04D
:1019E000A0FC06902000083000F09BFC079020002F
:1019F0000A3000F096FC079B03900293069B2A0096
:101A00000193059B08A80093B1683B0000F014FC0B
:101A1000AAE68B68002B14D10C2203680A619B682C
:101A20004532FF329F5EA92252009E5EAA225200DA
:101A30009D5EAB225200985EAC225200995EAD22B0
:101A40006DE70C2B00D01FE6002306680B6173685E
:101A5000D86800F0D3FB002800D085E66468200039
:101A600000F05FFC0500A01C00F05BFC0700201DDF
:101A700000F057FC0590A01D00F053FC06902000DC
:101A8000083000F04EFC079020000A3000F049FCBE
:101A9000079B03900293069B2A000193059B08A8CD
:101AA0000093B1683B0000F042FC5DE68B68002BC0
:101AB00000D0E9E502680B6108A8916801F01CFC00
:101AC00052E6082B00D0DFE5002305680B616B6848
:101AD000D86800F093FB002800D045E66168AA684A
:101AE0000B7848788C7800041B0624020343C878DE
:101AF00023434D7918430B798C792D041B06C97942
:101B000024022B4323430B431100FC314B66B223C9
:101B1000086601215B00D15426E68B68002B00D0BB
:101B2000B2E508210268E068126821610539127E79
:101B30000170E06801394170E1688B70E168CA703A
:101B4000E26813710122E1684A71E2689371E26808
:101B5000D37109E68D68002D00D095E51A2203683F
:101B600008AE0A613000196800F014FD0899337955
:101B7000E468AB4204D94A5D002A01D00135F8E798
:101B8000192D00D919252A00200004F0DBFB1A22A8
:101B90000021521B601904F0BFFBE5E5F0B50F0012
:101BA0000400002087B04E690392183786421ED089
:101BB000C200BD5AAC46039DAC4513D18A18508B68
:101BC0005D68A84210D8586004ADD2690968C0CBDE
:101BD000C0C508320090049B200001F0EBF8200003
:101BE00007B0F0BD0130E1E707232370F7E70823D2
:101BF000FBE7F7B507259446DA1DAA43083217001C
:101C00008C68CA680093A41ABC4216D30D00002643
:101C100014350C690195B44213D0019BF5005B5B50
:101C200063450CD1009B4D19EB820B689B18D219B0
:101C3000AB61CA600023037000E00570FEBD013691
:101C4000E9E70723092CF6D86346E5004D19AB8276
:101C5000009B0134EB820B689B18D219AB61CA6000
:101C60000C61E7E7027ED3B2012A10D0022B0DD01F
:101C7000002B23D1431CDA7F7E2A06D17E2904D093
:101C8000426811700122C2610276D97770477E29BD
:101C900006D1022202768218D3770130C177F5E7A8
:101CA000C269084B9A4206D8C3694268D154C369D5
:101CB0000133C361F1E700230376EEE700230376E7
:101CC000E4E7C046090200000122C31CDA770023C2
:101CD00003767047002370B50D0086B0496801ACEB
:101CE000237223746360E360022902D8002006B0E7
:101CF00070BD2B6803399A788A42F7D119785E78DB
:101D000021706670002A24D0033302932272866801
:101D1000002EEBD003798B42E8D1EB68AA68043B34
:101D2000043223742100C0680492B047430601D0F6
:101D3000002323742378AA6813706378AA68537009
:101D4000AB689870237CAA680120D3700433EB60E1
:101D5000CDE70292DBE70A78431CDA774B68C36170
:101D600001230230C377704770B5002404704B79AB
:101D70000500A34202D18B79A34212D00E684C71A8
:101D800070688C7100F044FB33681A689B6893613B
:101D900000F07CF973681A689B68936100F076F92B
:101DA0002C70280070BDF0B585B0019300230500AC
:101DB0000C0007260127009203703B00B340009AF5
:101DC0006068134236D0036882689A6123681A6893
:101DD0009B68936100F066F9206800F019FB00F041
:101DE0005BF9013EE9D2636803A91A689B68200089
:101DF000936123681A689B689361019B1B780B7041
:101E000000F081F8002801D101232B7000F04AF97D
:101E10002B78002B06D1606800F0FFFA002801D073
:101E200002232B70206800F0F3FA00F035F9280047
:101E300005B0F0BD00F0ECFAC8E7F0B585B01600CB
:101E40006A46D37100230500072733704A680C00E7
:101E5000116892688A61037023681A689B689361AD
:101E600000F020F9606800F0D8FA0023984202D010
:101E70000133BB40DBB2327813433370206800F08B
:101E8000C7FA00F009F9013FE6D26B46DB796068DA
:101E9000012B1DD100F0BCFA23681A689B6893617E
:101EA0002B78002B0AD10A9B03A91B7820000B700A
:101EB00000F029F8002801D101232B7000F0F2F87E
:101EC000206800F0A5FA00F0E7F8280005B0F0BDA2
:101ED000036882689A61DFE710B5040003681A6836
:101EE0009B68936143681A689B68936100F0CEF821
:101EF000606800F08DFA00F0C9F8206800F088FAF8
:101F000000F0CAF810BD70B5050000680C0000F0C4
:101F100084FA2378002B08D0002806D1286800F026
:101F20007CFA2378013B2370F3E770BD30B51D00C8
:101F30000823040085B000932B0000F03BFF2378BA
:101F4000002B07D12B78012B02D16B78002B01D00D
:101F500009232370200005B030BDF0B50E0000212C
:101F60000500140085B0D318017001932B78002B65
:101F700010D10A9B02A91B7803AF0B7022780B00CB
:101F800038003100FFF70FFF3B7801342B70019BC5
:101F90009C42EBD1280005B0F0BDF0B589B00593A7
:101FA0000E9B04921E78002303704B7905000C00F1
:101FB000002B14D101220F688B710B794A71380004
:101FC0000393FFF789FF039A07AB1E70520006AE1A
:101FD00039003000D2B2FFF7E6FE33782B702B7851
:101FE000002B0DD10E9A2168127806AB07AC1A703F
:101FF00020000093049A059BFFF7AFFF23782B7016
:10200000280009B0F0BDF0B587B0170000246A467B
:1020100005000E00D37304702B78002B10D10C9B9D
:102020001A7804AB1A70022C0DD100936B46310064
:10203000DB7BBA1C05A8FFF700FF02AB1B7B2B70F4
:10204000280007B0F0BD3A1900933100012305A81C
:10205000FFF7F3FE02AB1B7B01342B70032CDBD1AB
:10206000EEE730B58C1C0A788378534008225DB2C5
:102070005B00DBB2002D01DA05786B40013A002AE3
:10208000F5D101318370A142EDD130BD0C23C046A2
:10209000013B002BFBD170470A23C046013B002BBC
:1020A000FBD170470923C046013B002BFBD1704791
:1020B000F0B50F008BB006001C0038680B7908A93A
:1020C0000B7108900023262002AD6A7506AA1370D2
:1020D0004B718B71287502330092300007AAFFF70D
:1020E0005CFF3378002B26D1231D03932388BD6822
:1020F00002AA5BBA93826B782800AB7007A9FFF73E
:10210000B0FFAB78EA7808A953406A78AA7002AAAF
:102110009375002206AB05AD1A702800009307AA3C
:102120000323FFF73AFF2B783370002B03D1039B77
:102130000234A342DAD107A808A9FFF715FE300040
:102140000BB0F0BD82B037B507936C4603006260F8
:102150000091143322CC22C307AA043312CA12C33B
:102160000023C361EFF3108472B6012203681B6879
:102170001B6819680A431A60C269456AFF21AA42AE
:1021800005D2C269016A895CC2690132C261996281
:10219000002C00D162B6036819680423CB56002BCB
:1021A00008DB1F2213401E3A9A401300C022094840
:1021B000520083500423CB56002B06DB1F22134012
:1021C0001E3A9A401300034A136037BC08BC02B0A1
:1021D0001847C04600E100E010B504090F232200B3
:1021E000034030329F2800D907320A701A0030327B
:1021F000092B01D937331A004A7010BD031E04D0D1
:102200000120063B984280414042704710B5024B86
:102210001B68984710BDC0460802000872B6BFF39D
:102220004F8F034B034ADA60BFF34F8FC046FDE781
:1022300000ED00E00400FA05F7B508AC0027E75F01
:1022400009AC0026A65F0AAC0025645F00940BACC5
:102250000025645F0194541EA4B2F92C16D90424FD
:1022600004700478002C10D14534FF340A53A322A3
:1022700052008B52A4235B00CF52009A0233CE52FD
:102280000233CA52019A0233CA52FEBDFA255C1EBD
:10229000A4B2AD00AC42E2D27C1EA4B2AC42DED20B
:1022A000B4B2A446084CA445D9D8084CA446009C16
:1022B0000A3CA4B26445D2D8019C013CA4B2AC4211
:1022C000CDD20024CCE7C046B80B00007E1300003E
:1022D000802303495B020A681A42FCD17047C0465A
:1022E0001020024070B505001C00100005268B422E
:1022F00014D880231B059A4210D3C918091B8A429F
:102300000CD8049903F0A8FF002907D120000499F4
:1023100003F0A2FF4B1E994149420E4028002E7047
:1023200070BD027840781202104300B27047F7B5D2
:1023300008AC0027E75F09AC0026A65F0AAC0025C1
:10234000645F00940BAC0025645F0194541EA4B23A
:10235000F92C16D9042404700478002C10D15134BF
:10236000FF340A53A92252008B52AA235B00CF529A
:10237000009A0233CE520233CA52019A0233CA5231
:10238000FEBDFA255C1EA4B2AD00AC42E2D27C1EBA
:10239000A4B2AC42DED2B4B2A446084CA445D9D80B
:1023A000074CA446009C0A3CA4B26445D2D8019CC8
:1023B000013CA4B2AC42CDD20024CCE7B80B000063
:1023C0007E13000010B503F065FF044903F044FBE1
:1023D000034903F05BFCFEF74DFF10BD0000A03F7A
:1023E0009AC175450321027910B5520091400468E5
:1023F000A3688B43012191400B43A36010BD802350
:1024000002495B020A681A42FCD170471020024060
:10241000836802681B0493617047026880681269D0
:102420001040431E9841C0B2704710B504002268A6
:1024300007240379D80823409B0008349C40994026
:1024400080001018026AA2430A43026210BD0321F1
:10245000027910B5520091400468E3688B43022171
:1024600091400B43E36010BDC9B210B501290CD0F7
:10247000022915D0002907D10322017904684900F7
:102480008A40E3689343E36010BD04680279032047
:10249000520090409140E36883431943E160F3E7C1
:1024A000FFF7D5FFF0E7F7B504006846C37108A849
:1024B000057801200600A027964021602271A660C1
:1024C000FF05B9420FD12E4F7B6B9C4663461843E4
:1024D00078636B46D8798E61032829D8032303F0EB
:1024E00021FE223D414B2748814204D1244F022046
:1024F0007B6B9C46EAE72448814204D1204F0420AC
:102500007B6B9C46E2E72148814204D11C4F0820A6
:102510007B6B9C46DAE71E488142DAD1184F2020B7
:102520007B6B9C46D2E75200934088689843886052
:10253000012003002279216893404E688240334392
:102540000326964090404B600B68B34303430B60F7
:102550002000291CFFF788FF2000FEBD2000FFF7A8
:1025600041FFE5E75200934088689843030002204A
:10257000904003438B60DBE7520093408868F8E7A4
:10258000001002400004005000080050000C0050F1
:1025900000140050002310B5CC5CDAB2002C02D13C
:1025A0000160027110BD0133182BF5D10160037178
:1025B000F8E780220300D2059A4208D80021002AB9
:1025C0000AD050184908834203D29208F7E79208CC
:1025D000F2E71B1A8918F8E7802208045202934296
:1025E0000FD21B048022D20111184008994201D851
:1025F0005B1A80189208F7D198429B415B42C01841
:102600007047044A5B1A1B049B1880221202801830
:10261000E8E7C0460080FFFF30B5050000292CD058
:10262000C317C4185C40CB17CA185A4080235B02FA
:10263000A24207D3002B20D0002A01DA52085B08FF
:10264000002008E052005B00F2E7944201D31843F7
:10265000A41A64005B08002B0BD0002CF5D1ED0F01
:10266000C90F8D4204D080231B06984200D04042FF
:1026700030BD94425B41C018F1E780200006F7E7C7
:10268000030070B50025866A016A040038331D70A6
:102690001231C563056446641C48FFF7BDFF616ADB
:1026A000A06412311A48FFF7B7FF2268E064531E96
:1026B000591E8B4117495B420B401749A5655B18B2
:1026C0002365164BE5656365230025666566A5668B
:1026D0006667A567211D0833012A0FD1104AE267FA
:1026E000104ACA6780225202DA67230083220E4909
:1026F000883306C300239034237070BD0B4AE26711
:10270000D5221204CA67C822D203EDE7692400006B
:102710008D04000063F41700236D00008D06000097
:102720006AFDFFFF00006602310C000056FEFFFF4D
:10273000C317F0B5C6185E40CB17CD185D402F0CFF
:10274000330CADB2B6B20400320028007A435843CD
:1027500075438218100C12045219AA42AD417B43F2
:102760006D42C3185B19D80B0FD1802000021018DE
:102770009042924152429B181B04000C1843E40FF4
:10278000C90F8C4200D04042F0BD80200006FBE71C
:10279000F8B5114B040098421BDC104B00209C4202
:1027A00011DB0F4B1D001035844201DA1D0064421D
:1027B00080202F00400206001037B44204DA0435AE
:1027C000F610AF42F9D1F8BD2968FFF7B1FFA41B9D
:1027D000F3E70448F7E7C046AE650A006E37F4FF3A
:1027E0007C630008FFFFFF7F036F10B5C91AC06E3E
:1027F000FFF79EFF0A4A030090420EDBC82200202A
:102800009203934208DC1800FFF7C2FF80235B02AB
:10281000C1181800FFF700FF10BD80204002FBE741
:102820000000CEFF002801DB001470474042001476
:102830004042FAE7F0B5050085B040680C00FFF7AC
:10284000F1FF0700286AFFF7EDFF0600686AFFF74F
:10285000E9FF0190E868FFF7E5FF0290A86AFFF73B
:10286000E1FF0390E869FFF7DDFF019B2780A3806C
:10287000029B6680E380039B6081238105B0F0BDED
:10288000F0B589B00792B422C36A0700920393425D
:102890000DDC802252029B18C3628023786B1B02DE
:1028A000C018FFF7BFFF079B186009B0F0BDE54AED
:1028B0004B1E93420BD88268531C8A4204DAE24BC7
:1028C000D3188B4200DD0B009B1A1B043B633B6853
:1028D000002B05D03A0038321278002A00D1D3E01C
:1028E0003A6BB96F501A012B00D0A7E0FA21C90446
:1028F000FFF792FEF969FFF71BFF3B1DD96F786365
:10290000411A0400F86FFFF713FFD04B05009842FF
:1029100000DAB6E0C82300209B039D421CDC3B008C
:1029200008337868D96F002C00DA98E080235B02C6
:10293000994200D086E0091AC548FFF7F9FE040065
:102940002800FFF725FF80235B02C118FA235B04F0
:10295000E018FFF761FE001B78633B003E009033F8
:102960001A787C6B9436002A06D13A00983234608B
:102970001460546001221A703B0088331D68802364
:102980005B023168581BFFF7D3FE2100009028003E
:10299000FFF7CEFE009A80231218326000923A00B0
:1029A0003D008C3216685B0298352968981BFFF74A
:1029B000BFFE210001903000FFF7BAFE019B1818FE
:1029C000009B2860191A00D5C11AA248FFF7B0FE73
:1029D000FFF7DEFE0100F0204004FFF7A9FE80258E
:1029E000A8236D025B03C1183E002800FFF714FE08
:1029F0009C3631680090281AFFF79AFE21000500E6
:102A00000098FFF795FE80232D1835601B029D422C
:102A10003DDB7D63386B002800DC3EE73A0038324E
:102A20001378002B35D1012111703864FB63FA6BE8
:102A30003B6C9B187A6CBB677A672EE786497B6F85
:102A4000C91A55E70100A020C002FFF771FEFA2362
:102A500080215B04181AC902FFF7DEFD6FE7FFF75C
:102A6000DBFD04002800FFF793FE80235B02C11802
:102A7000FA204004FFF7D0FD01002000FFF758FEC8
:102A80006AE7FA20400467E77B687B6365E77B635E
:102A9000C0E7724AFB6B9918714A914204D93A6CAB
:102AA000D3183B640023FB633B6C6E4AC31A069346
:102AB0003B6E934203DC802149025B183B667B6ED0
:102AC000934203DC802252029B187B66664B3A6974
:102AD0003E6EFB6631003A673800FFF785FE3A6DBF
:102AE000BC6C01900199101BFFF722FEFF23BA690D
:102AF0005B0400929A1A02927A6E24181100380030
:102B00000392FFF771FE01000298FFF711FE009992
:102B1000564A7D6B0818FA66290038673800FFF7B7
:102B200063FE21000490FFF703FE4F4B3100FB666C
:102B30007B690590B8653B673800FFF755FE019B40
:102B4000FC6CC11A7B6D181BFFF7F2FD039924186A
:102B50003800FFF749FE01000298FFF7E9FD009BEE
:102B6000424A1818FA66290038673800FFF73CFE19
:102B70002100FFF7DDFD0090F8658020049B4002F6
:102B80003B49C01AFFF7D4FD3A4BC1183A48FFF74A
:102B9000CFFDBB6EC01871D4B866BB6EFA689342A5
:102BA00001DD00237B668021FB6BC9030193019A41
:102BB000069B981AFFF730FD7D6C04004019002C2D
:102BC00000DA281BB421C90488425ADDFFF724FD2E
:102BD0000100FFF7ADFD06008023009ADB03991A80
:102BE0003000FFF7A5FDFFF7E4FC029080203100E4
:102BF000C003FFF79DFD01002800FFF70DFD010058
:102C00002800FFF795FD210005000098FFF790FDD3
:102C10003100FFF701FD2100FFF78AFD2818FFF7BB
:102C2000C8FC01000298FFF783FD21007864059835
:102C3000FFF77EFD80210903FFF7EEFC019B1818CA
:102C4000F863F4E6E6FD0000FF7F00000000CEFF21
:102C500083000100CDCCFFFF000024FFFFFF6300D5
:102C6000FEFFC700FFFFFD7F8F0200000A17000074
:102C7000CD4C010033B3FFFF440400000023BB66CA
:102C80008BE780267602A7E710B50368406898476F
:102C900010BD10B502482030FFF7F6FF10BDC0464A
:102CA0008400002010B502481830FFF7EDFF10BD7A
:102CB0008400002010B502483830FFF7E5FF10BD52
:102CC0008400002010B502483030FFF7DDFF10BD52
:102CD0008400002010B502486430FFF7D5FF10BD16
:102CE0008400002010B502485C30FFF7CDFF10BD16
:102CF0008400002010B502485430FFF7C5FF10BD16
:102D00008400002010B502484C30FFF7BDFF10BD15
:102D10008400002010B502484430FFF7B5FF10BD15
:102D20008400002010B502480430FFF7ADFF10BD4D
:102D300084000020FEE77047FEE7F0B5C368060098
:102D400018681B7900259C4685B00392029101907A
:102D5000D2B24F1EECB2944203D26B1CF85C002836
:102D600011D10027A44509D92A00019803F0EAFAF5
:102D7000019B01345F55E3B29C460137634638003E
:102D8000337405B0F0BD1D00E4E710B504008842BF
:102D90000ED00B68502203604B6843608B688360E1
:102DA000CB68C3600B6914310361143003F0CAFAB5
:102DB000200010BD82B073B5079301230400089E64
:102DC0000093096833001500FFF78CFA2378002B75
:102DD00004D132002900079803F0B4FA200076BC31
:102DE00008BC02B018470B00111CA022D20570B518
:102DF000037102600400012005009D40A560074D9D
:102E00005B006E6B3043686303259D401068A843E8
:102E100010602000FFF728FB200070BD001002406A
:102E200082B0F0B58BB011930493129B16000393FC
:102E30000823002205000691096800930592039B70
:102E400032000968FFF74EFA2B78002B55D1334C2E
:102E50006369002B03DA324BA360324BA360FFF7A8
:102E600037FAFE2322699B001343012237002361B6
:102E70006369134363610792039ABB1B934212D2A7
:102E8000049B0822991BC91908A803F05BFA089B48
:102E90003B60099B7B60FFF71BFA2369079A0837A1
:102EA00093432361E8E701276369BB436361FFF74D
:102EB0000FFA802362691B06134363612269FE23B4
:102EC00011009B0019401A4215D1069B2970196800
:102ED00008AC009720003200039B0968FFF702FA54
:102EE0002478002C0FD02C70002C06D1059B002BD1
:102EF00003D1063300E005232B7028000BB0F0BC93
:102F000008BC02B018473000039A049903F00CFA89
:102F100043425841C3B20593E5E7C0460020024052
:102F200023016745AB89EFCDF0B58DB00593129BBA
:102F300016000493139B040003930723039A039F33
:102F40009A43029232001F40029B08320093049B76
:102F50000D00FFF765FF2378002B13D1002F14D14C
:102F6000174B059A089304AB9A82039A07AFDA824B
:102F7000082332000093290008AB3800FFF750FF08
:102F80003B78237020000DB0F0BD029A0893944660
:102F90000993049B3A006344190008A803F0D2F98E
:102FA0000823029A07AF08320093290008AB3800C3
:102FB0009219FFF735FF3B782370002BE2D1CFE762
:102FC00046696C65F0B50E001F000023A9B00370C0
:102FD00003903000496904921830994221D0DA00F8
:102FE000845A049DAC4263D1B218558B7B689D42D4
:102FF00017D13B68D46905930123316800930834E5
:103000002B00220009680FA8FFF76CF908AB1B7FA3
:10301000002B06D12A002000059903F085F900282D
:1030200043D00A220021B36874681093F3683569AD
:10303000119373690F94139312950FAB013A998210
:10304000D98299610833002AF8D13100331D5032FA
:10305000183114A8079303F075F9330068331B780F
:10306000002B27D07B68049A9BB20FA90DA8FEF70E
:10307000C0FD08AB1B7D039A1370002B0DD16B466E
:103080003900621911C911C33100049B0DA8FFF763
:103090004BFF08AB1B7D039A1370039B1B78002B1F
:1030A00008D107980FA9FFF770FE039829B0F0BD6B
:1030B000013392E708231293002313930F9B109D73
:1030C0001093119B3168089380231B0100930F9587
:1030D0000DAC089B2A0020000968FFF703F923784C
:1030E0000693002B61D17E4C6369002B03DA7D4B84
:1030F000A3607D4BA360FFF7EBF8FE2322699B00E2
:10310000134323610595089B059AEB1893421ED93A
:103110000222F8216369090613436361059B626912
:103120005B18FC211B0A49000B4070490A401343FD
:103130006361802362695B0213436361FFF7C8F830
:10314000802212019446059B63440593DBE702222B
:10315000636993436361802322689B001A4213D002
:10316000226863490A4022608022216812010A43D2
:103170002260BFF34F8FBFF36F8F5E4922680A4012
:103180002260226813432360FFF7A2F8802362695C
:103190001B0613436361FE2322699B001A4201D080
:1031A00005230693069A0DAB1A700DAB1B78039A94
:1031B000350013700023183505930F9A129B94461F
:1031C00063440693039B1B78002B0ED1059B726909
:1031D000934241D37B680DAC049A9BB220000FA9A7
:1031E000FEF707FD2378039A1370039B1B78002BCF
:1031F00000D05AE76B4606CF06C30DAC049B069A77
:1032000031002000FFF790FE2378039A1370002B03
:1032100000D04AE7F26E531C5FD0012301320B93BA
:103220000C92F26608220BAB6260236031000092C0
:103230000AA80F9AFFF7F4FD08AB1B7A039A1370E4
:10324000002B00D031E70FA90798FFF79EFD310052
:10325000012368310B7028E72A88049B9A4237D0F3
:103260000DAC20006B880FA9FEF7C3FC2478039BEC
:103270001C70002C2CD107226B6808936B880733D5
:103280009343083309930821089A0BAB0E91121946
:1032900000910AA831680D93FFF78CFD08AA137AF4
:1032A000002B13D10BAA0D92069A08330E930093AC
:1032B00031000BAB12190AA8FFF7B2FD08AB1B7A5D
:1032C000002B03D1099A0834A242DCD8039A137068
:1032D000059B0835013305936FE708AB1A72ABE71E
:1032E0000020024023016745AB89EFCD07FEFFFFB9
:1032F000FFFDFFFFFFF7FFFFD423F0B50C005B00DD
:10330000C9582300413387B0FF330493042303AF2C
:1033100005938A8804AB096805003800FFF752FE60
:10332000D6235B00E15823004533FF3304930C237D
:1033300002AE059304A803008A8830000968FFF7ED
:1033400041FED8235B00E1585134A53BFF34FF3BDD
:103350000494059301AC8A8804AB20000968FFF748
:1033600031FE33783A781A43FF23002A04D12378B8
:103370005A1E93415B42DBB228002B7007B0F0BDB0
:10338000F0B5436907001A788BB0002A0FD00022ED
:103390001A70038B046801330383E368934201D0FE
:1033A000013BE360A368002B0FD0013BA360F868EA
:1033B000072800D9ABE202F0BFFE13011A01AD01EC
:1033C000BE01CD01E7019D02A5026069092814D85C
:1033D00002F0A8FE050C364F65788CA7D3EEA269E3
:1033E000002AE4D10223A361A26006E0237C002B23
:1033F00005D1E368002B02D104336361D7E7A369E9
:10340000002B04D10222A360A2610533F5E7012B52
:10341000CDD1636809AD2800C94A1968FEF7EDF8F7
:103420002D78002DC3D1022320000A222900A36198
:103430001C3002F071FF2574E560A5606561B6E798
:10344000A08BFEF7BFFF6268E38B116808AD04AA8A
:103450009082D382280009ABBA4AFEF729FE2B7866
:10346000002BA4D1B84A23743C33A360E260373BFD
:10347000C3E7A08BFEF7A6FF6268E38B116808AD77
:1034800004AA9082D382280009ABAE4AFEF710FE50
:103490002B78002B8BD13C33A3600123ADE70022B6
:1034A000636807AD196808AB1A702800009309AA71
:1034B0000223FEF71BF82A78002A00D077E70123C1
:1034C000237491E7236809AD1968FD222800FDF7F0
:1034D000D5FF2B78002B03D11333A3600D3B8CE772
:1034E0000023621DD377A360073386E70025236896
:1034F00007AE196808AB1D703000009309AA0223BB
:10350000FDF7F4FF307804AB9A8AD98A631DA8428C
:1035100005D1E2830122A183DA770023E3E7DD7797
:10352000FBE7A08BFEF74EFF6368E28B257C1968F2
:1035300009AB18805A80002D0FD0844A08A8FEF7E6
:10354000B7FD04AB1B7C002B03D13C33A360333BA2
:1035500053E70023A21DD3779EE77A4A08A8FEF717
:10356000A7FD04AB1B7C002B03D13C33A360343B91
:1035700043E7A31DDD77A5608FE70022636807AEF0
:10358000196809AD08AB1A7030002A0000930123B6
:10359000FDF7ACFF3278A31D002A07D12A882284C8
:1035A0000122DA770023A360033326E70022F8E73D
:1035B0000025A31DDD770293636807AE196808AB89
:1035C0001D7009AA009330000223FDF78FFF3278A7
:1035D000099BAA42CFD123620123A21DD377CAE758
:1035E000BB68002B00D092E10133FB608FE17C6867
:1035F000002625002000A035E66226636663FFF7FB
:103600003FF82800EE622E636E63FFF739F8B323AC
:103610005B00E6523200B62326005B00FC36F26601
:10362000E2527267B267BE2200235200F367A350D2
:103630000432A3500432A350A32302965B00E05E41
:10364000A4235B00E15EA5235B00E25EA6235B0092
:10365000E35E12040393A7235B00E35EA2260493B8
:103660007600A65F049BE260039A36040904120404
:103670001B0400046660206261622000A262E361B4
:10368000FEF7FEFFA9235B00E05EAA235B00E15E7C
:10369000AB235B00E25EAC235B00E35E12040393AA
:1036A000AD235B00E35EA82604937600A65F049B2F
:1036B000EA60039A09041B04000412043604286219
:1036C0006962EB6128006E60AA62FEF7D9FFB22141
:1036D0004900635C002B12D0029A029B506E1C4A78
:1036E0001B6E2266220001253832E3636064157088
:1036F000226C23639A1800236067A2676354226CCC
:10370000E36B9B18029A1366636C536600233B833A
:1037100003336AE7BB68012B01D1053365E73A8BB8
:103720003B8A9A42F2D23B680633DB7F002B00D102
:10373000EDE0042359E700223B689A61022354E735
:103740001536000012260000102700001926000080
:103750000000302A00213B689A1DD1775C1DE47F70
:10376000188C598C7A68002C06D09C8BDD8BB32387
:103770005B00D5520233D452B5235B00D0520233E2
:10378000D152683BFF3B30E7C4237C685B00E358C1
:103790002500188802F07EFD5E4902F05DF95E4961
:1037A00002F074FA8935FF356B68EE68306018886E
:1037B00002F070FD594902F04FF9594902F066FADA
:1037C0002B690390186035685649281C01F0B6FD36
:1037D000002800D08AE05449281C01F0C3FD0028CD
:1037E00000D0514D5149281C02F036F95049061CB1
:1037F000281C01F0CBFD011C301C260001F062FFEB
:1038000001F02AFC8936FF36F3680021059018681C
:1038100001F0BCFDB368196801F0B8FD7369434954
:103820001860029002F018F941490490029801F0E2
:10383000ADFD011C049801F045FF01F00DFC3D4970
:103840000490039801F03EFF3B4902F005F9059909
:1038500002F002F939490390281C01F097FD011C80
:10386000039801F02FFF364902F0F6F83349051CA2
:10387000029801F08BFD011C281C02F0EDF82D4987
:1038800002F0EAF82F49051C049802F0E5F8011C43
:10389000281C01F017FF0021B669051C01F04EFD40
:1038A000002825D12349281C01F05CFD002800D008
:1038B000204D2200B52335605B007132E15A2000B3
:1038C000FF32FEF7DDFF2200B62320005B007532D9
:1038D000E15AFF32A030FEF7D3FF2200E36B216CE8
:1038E000FC325B181366636C536627E70D4D79E76E
:1038F0000025DEE73B685A69002A01D001229A615F
:10390000072372E63B685B69002B00D16DE60BB0C4
:10391000F0BDC046AF002F3B00003442FA00FA3A37
:103920000000C0400000C8C200004843C3F58C41FD
:10393000B81E73430000C8428195C3403393884347
:1039400033B358430D8FA544002110B5041C01F07A
:10395000F5FCFC218905002805D0201C02F096F911
:1039600001F0F6FA10BD201C01F010FD01F032FB51
:10397000F8E710B5FFF7E8FF1149041C01F0FCFC63
:1039800000280AD00F49201C01F0E2FC002804D0D6
:10399000201C02F043FB00B210BD0949201C01F0BD
:1039A000CDFC002809D10749201C01F0DBFC431E97
:1039B000984140424004400CEEE70348ECE7C04623
:1039C000EFFFFFC6EFFDFF460080FFFFF0B50027C9
:1039D000876047604C7806000D0097B0932C00D1AB
:1039E00013E346D8032C00D197E009D8BC426CD031
:1039F000012C00D17FE002240023B3607360AAE2AF
:103A0000602C00D117E1612CF5D10B7A002B5AD034
:103A10004F683A78082A00D137E2882A00D01BE1A3
:103A20000124092BE8D104686368D868FEF7E6FB37
:103A3000002800D04DE27A78B978FB7809041206A4
:103A40001B020A433979BE791A437B790A43F97913
:103A500036041B06090233430B43A1683E7A0C006F
:103A60003343FC346366B223226601225B00CA54EE
:103A70001AE1D32C00D1C1E21ED8D02C00D12AE209
:103A8000D12CB8D10C7A002C1DD103220368C9684F
:103A90001B681B7E0A70E968013A4A70EA689470F4
:103AA000EA68D370EB681C710123EA685371EB6814
:103AB0009C7107232B744EE2F32C9CD10C7AD44BCF
:103AC000002C00D19FE2012496E70B7A002BFAD05C
:103AD0004A681478002C00D0BEE0012BF3D10368B3
:103AE0005F68F868FEF78AFB002801D0433483E75B
:103AF000BC602C742FE20B7A0593002B00D07BE77F
:103B000003685F68F868FEF779FB002800D1E0E100
:103B1000059BBC602B7400241DE20B7A002BD2D0D5
:103B20004A6812780D2A4ED0102A00D094E0012461
:103B3000A34200D060E704686368D868FEF75EFBC4
:103B4000002800D1C5E1C223A4685B00E058B14958
:103B500001F082FFFFF70DFFD2235B00E158243B09
:103B60000600E05801F078FFFFF703FFFC340590F2
:103B7000606F02F073FAA84901F06EFFFFF7F9FEDB
:103B80000690A06F02F06AFAA34901F065FFFFF703
:103B9000F0FEEA6833041B0E1370059B5670EA684A
:103BA0001B041B0E9370059BD370069BEA681B04D5
:103BB0001B0E1371069B5371EA6803041B0E93716D
:103BC000D0710823A6E70124A34200D014E70468BB
:103BD0006368D868FEF712FB002800D179E1BE23A4
:103BE000A4685B00E0588B4901F036FFFFF7C1FE87
:103BF0002300D222FC335200A1580600D86F01F0F6
:103C00002BFFFFF7B6FEB5235B00E25A0233E15A01
:103C1000EC6833041B0E23706670EC6803041B0E03
:103C2000E070A370EB68100A5A711871EB680A0A09
:103C30009A71D971C5E70B7A002B00D143E74F6821
:103C40003C78802C00D19BE008D80D2C44D00E2C61
:103C500000D17EE0012C29D00424CDE68D2C00D1AA
:103C60009EE08E2C00D1DDE0812CF5D10124032BC8
:103C700000D0C1E60368781C9C68FEF752FB02F096
:103C8000EDF9D2235B00E15801F01CFD6349071CEC
:103C900001F054FB0028DFD16149381C01F062FBC0
:103CA0000028D9D1FC346764287434E7012B00D094
:103CB000A2E60368D2219B6849001A00FC325958D9
:103CC000506C01F0C9FEFFF754FEEA6803041B0EB6
:103CD0001370507002231DE70124A34200D08BE62D
:103CE000A222036852009B689F5EA32252009E5E40
:103CF000A42252009C5EA5225200985EA622520089
:103D0000995EA72252009A5EEB6805929C46624635
:103D10003B041B0E13705770EF6833041B0EBB700F
:103D2000FE70EE6823041B0E33717471EC6803049B
:103D30001B0EA371E071E8680B041B0E0372417245
:103D4000059BE9681B041B0E8B72059BCB720C2331
:103D5000E0E60124A34200D04EE6A8220368520008
:103D60009B689F5EA92252009E5EAA2252009C5E22
:103D7000AB225200985EAC225200995EAD22C1E7A0
:103D80000124A34200D037E6036811AC20009968F3
:103D9000FFF7B2FA2478002C00D1AAE67F242BE6A4
:103DA00001240D2B00D027E604686368D868FEF76D
:103DB00025FA002800D08CE0781CFEF7B2FA0590B6
:103DC000F81CFEF7AEFA0690781DFEF7AAFA0790E7
:103DD000F81DFEF7A6FA089038000930FEF7A1FAA0
:103DE000099038000B30FEF79CFA099B0390029370
:103DF000089B11AF0193079B38000093059A069B1F
:103E0000A168FEF719FA3C78002C00D171E623E78F
:103E10000D2200080000C842000020410000F0C14F
:103E20000000F04101240D2B00D0E5E50468636833
:103E3000D868FEF7E3F900284BD1781CFEF771FA39
:103E40000590F81CFEF76DFA0690781DFEF769FAEA
:103E50000790F81DFEF765FA089038000930FEF764
:103E600060FA099038000B30FEF75BFA099B03906B
:103E70000293089B11AF0193079B38000093059AAA
:103E8000069BA168FEF753FABDE70124A34200D0C8
:103E9000B2E504686368D868FEF7B0F9002818D066
:103EA000A368FC33196E5A6EEB68080E187008028E
:103EB000000E58700804000ED9709870EB68110E4F
:103EC00019711102090E59711104090E9971DA71F3
:103ED00077E6432490E50B7A002B00D1F3E549689F
:103EE000021D0C78012C39D0032C68D0002C00D096
:103EF000B2E6012B00D0E6E503683C2111932B1DAF
:103F000013930023129206AA0C35521814951370BD
:103F1000474A01331000150020301F35D9B2092B54
:103F200004D120320B920BAA137106E00133EF5C2F
:103F3000002FF3D10BAB0B9019710B990C9A11A8B0
:103F4000FEF7FBFE002800D128E73C2106AA521804
:103F5000149B12781A71200017B0F0BD012B00D00D
:103F60004AE50168129211913C212A1D139206AA7A
:103F700052180C35149517702D4A10001400293072
:103F80002834D9B2062B04D129320D920DAA13710F
:103F900006E00133E55C002DF3D10DAB0D901971F6
:103FA0000D990E9A11A8FEF7C8FE002800D1F5E67B
:103FB0003C2106AA149B521812781A71ABE5012411
:103FC000A34200D018E512922A1D036813923B34D5
:103FD00006AA12190C3511931495177019680FA8B9
:103FE000FEF7D8FA0F99109A11A8FEF7A6FE00283E
:103FF00000D1D3E606AA149B1219DDE70C7A002C37
:1040000000D060E50B4B736073E50C7A002C00D098
:1040100059E50368DB681A68CB68110E1970110244
:10402000090E59701104090E9970DA70042341E5E4
:104030007C6300081D22000810B5114B114A12487C
:10404000834202D002CA02C3FAE700220F4B104992
:104050008B4201D004C3FBE70E4B0F4A1C1F934257
:1040600003D0236898472300F7E70C4B0C4A1C1F2A
:10407000934203D0236898472300F7E700F014F831
:10408000000000208864000868000020680000200C
:10409000F000002070630008706300087863000877
:1040A000706300087047C046464B47491A68F0B530
:1040B0000A401A601A684549454C11408022920016
:1040C0000A431A60434B44491A68A5440A40072131
:1040D0001A609A68414C8A439A60226880258A4314
:1040E00022601A683E493F4E0A401A600022C021F1
:1040F0003270226A89041140AD040393A9422CD086
:10410000394B1A4063691543002B03DA374BA36020
:10411000374BA360FEF773F963695B0003D5354B3A
:10412000E360354BE360FEF76AF9FE2322699B00EA
:10413000134323612562FEF762F9802362699B02C3
:1041400013436361FEF75BF963692C4A13406361B3
:10415000802362691B05134363610022042149A87F
:10416000FEF741FE0022052146A8FEF73CFE002294
:10417000062143A8FEF737FE0022072140A8FEF7DC
:1041800032FE49A8FEF749F9050046A8FEF745F9B1
:104190000400601E844143A8FEF73FF90200501E50
:1041A000824164002C439200E4B240A81443FEF71D
:1041B00034F90200501E8241D2002243032A1FD04C
:1041C000FEE7C04600700040FFBFFFFFFFF9FFFFA2
:1041D0008CF9FFFF00100240FFC7FFFF00200240E4
:1041E000FFFFFFFE84000020FFFFFFFC2301674567
:1041F000AB89EFCD3B2A19087F6E5D4CFFFFFDFFB9
:104200001023012404255B930A3B5C935BA9B14B0B
:104210000C721868802728431860AF483F06586022
:10422000AE4800255E90AE485F958446006A000265
:10423000000A3843674638620D72B160A94931AF50
:1042400071609D6019683DAE114319606B46300086
:10425000A5491C70231CFEF726F96B460422A249CF
:104260001C703AA8231CFEF71EF96B4605229E49D6
:104270001C7037A8231CFEF716F96B4606229A49D4
:104280001C7034A8231CFEF70EF96B462A009649D1
:104290001C703800231CFEF706F96B462200924979
:1042A0001C702EA8231CFEF7FEF86B4602228E49D6
:1042B0001C702BA8231CFEF7F6F86B46A0210822E1
:1042C000C9051C7028A8231CFEF7EDF808ABBA68D6
:1042D0002793319B854D9A61B2683D9B26969A61E2
:1042E0000C952597FDF7D2FE742125AB229344232C
:1042F00006AA521813700CAB249322AB0B9325AB78
:104300001F9359230C3906AA5218FFAE1370683652
:104310000CAB219394221FAB300022A90A93FDF726
:10432000ADF833780795002B02D12000FCF780FF11
:104330000024892230000B99FDF7A0F83378A342BE
:1043400013D10120FCF774FFA62206AB92009B1844
:104350001C70ACAB009390A8022332000B99FDF7C0
:10436000C5F83488708824040443002306AA5381C6
:1043700030005F4A0A99FDF740F93578002D0CD1DD
:104380000120FCF755FF0A2206A9357052180123B7
:104390000A990096ACA8FDF7A9F83000554A0A9989
:1043A000FDF72BF93578002D1CD10120FCF740FFDB
:1043B000A62206AB92009B181D70ACAB32000A9986
:1043C000009390A80323FDF791F832880EAB110AF1
:1043D00019705A707288110A9970DA70B288110ACD
:1043E00019715A7106AB5E8900231A0065AD5A55E2
:1043F0000133182BFBD1C121153B2B7623BA6593D2
:10440000490006ABC918E0B2FDF7E6FEA87866A938
:10441000FDF7E2FEBF2106AB4900C9186878FDF739
:10442000DBFE29002878FDF7D7FE002467AF0EAB2E
:104430003900E05C0134FDF7CFFE0237062CF6D1DF
:10444000C921330AF0B22B75490006ABC91868754B
:10445000FDF7C2FE287D6AA9FDF7BEFE264B0022AD
:104460001B8804349B02099309AB9093234B9193CF
:10447000234B929380231B01939390AB013C1A83AF
:104480005A83DA610833002CF8D10023AAAD2B70CF
:1044900060AE08333000919A949309A97CAB6CAF5D
:1044A000AB949594FDF742FD929A86AB38009099B3
:1044B000FDF73CFD3B783278002B23D1879B002A07
:1044C00000D09DE27D9A0492934200D998E27D9BB0
:1044D000049399E210E000E07F3E000075140008AC
:1044E00000ED00E0C11200080004005031FFFF00A1
:1044F0002F20000082360000E075FF1F00700008CA
:1045000000780008002AE2D00023AB942B708022B0
:1045100090AB1493520006AB9A8790AB1293122380
:1045200006AAFF33938690AB109389230027ACAC87
:104530005B0093850021A022200001F0EDFEA02267
:104540000021D4A801F0E8FE0C220021FDA8FC9770
:1045500001F0E2FEFFA80C220021043001F0DCFE95
:10456000B2230025EBAE5B0035667566E554023379
:10457000E552FFABDD611C33B6235B00E55210331F
:10458000F7677567B567E7500433E750FFAA043350
:10459000E7501A320433E250FFAA04331C32E250CF
:1045A0000433FCAAE250FFAA04332C32E250FFAAE3
:1045B00004333032E250FFAA04333432E250FFAA0F
:1045C00004333832E250F14A0433E250043314AA7F
:1045D000E250043312AAE250043310AAE250FFAAB8
:1045E0006832FCA81060AD3BFFAAFF3BD3666C327B
:1045F000FFAA6832130080227CAE90A930005200DE
:10460000FDF7CCFAC823DB03AC956360E04BE622F0
:10461000A360B4231B04E360DE4B12042361DE4B72
:10462000E2616361C027AA23C8223F035B049203AF
:104630002000A36127626762A262E5622563656369
:10464000FEF71EF880235B02D593D44BE620D69369
:10465000B4239B04D793D24B0004D893D14BDB9067
:10466000C820D993F023012280035B03DE90D4A8F5
:10467000D492DA93DC97DD97DF95E095E195FDF72D
:10468000FFFFE06B276CFFAAC3191361BD98FFAB56
:104690005861FDA9200010321433FEF7CBF8FFA9B2
:1046A0000431D4A8FEF7C6F8FFA8D6216830FDAFC4
:1046B00007600C20FFAF49006158F8666C37FFAB0C
:1046C00086AF8A88380009686833FDF767FA3B7857
:1046D000FFA83370D8235B00E158FFAB6830043388
:1046E00003600C20FFABD866FFA868308A886C3363
:1046F000096803003800FDF751FA0BAB7C930AAB55
:1047000073600223B361A84BD420B560F560756176
:1047100035748393FA23400006A909189B000B8087
:10472000A24B01227193D82306A95B00CB181D80F0
:10473000039B6E926F951B6C84951343039AB5840B
:104740006C966D9413641823994A1CA8116864240C
:104750000B43136029000122FEF745FB2E00FF23C7
:10476000C046013B002BFBD11CA8FDF756FE0028DC
:1047700000D00600013C002CF1D10923A02219AD84
:104780002B71F833FF33AB60039B03995B6B0134F0
:10479000D2052343442719924B630A23169206AA93
:1047A000D21913708023DB001893039B039A5B6B71
:1047B000234353637D4B0C33529365AB4F936CABE8
:1047C0005093ACAB5193002E00D101E2032621009F
:1047D00016A8FDF72AFE06A9C91909783000A140DC
:1047E0008840169A423FD3688343D360136883435B
:1047F000380088400343210013602800FDF715FEB0
:104800002979199A8C4053682800A3435360FDF717
:10481000E9FD38002A7919995200964090400B68BA
:1048200006AAB34303430B60604BA8211033579390
:10483000604B4900589304235218599713805B4BDF
:104840001E695D4B9E4200D010E1039B1A6C8023D1
:10485000DB011343039A136457AB739300231424AF
:104860007893749379937593769377934F4B5348DA
:104870001C5722001B3AD2009B1873AADA61504AD7
:104880009A61042332681343336008233268134368
:1048900033600223F362FCF7EDFC0123F060326821
:1048A0001A433260002C07DB1F22C0211440A340B2
:1048B000444A4900535013600025FFABFFA829006C
:1048C000414A6C3068331D6001F026FD73AB86935E
:1048D000FFAB86AC683363603C4B06AA9B18257619
:1048E000E561DD773A4B9C219B18DD77394B759458
:1048F0009B182022DD77384B77947493374B49000F
:104900007693336805921343336006AB5B18539478
:104910001D7053ABE360324B4D95A3604FAB4C938E
:104920004CAB56932F4B4E9555934CAB63612E4B2E
:104930002361284D06ABED18EB7F002B07D0002339
:10494000EB778A9B002B02D08AA8FEF79DF9274AB5
:1049500006AB9B181B78DEB2002B00D12FE1EB7F5A
:10496000D9B2002B00D02AE106AB9B1819700A00BF
:104970000B00E069884200D892E06568685C002B13
:1049800000D07FE033007D2838D031E0000048437C
:10499000204E000000008C0A000064141027000064
:1049A0000000CC4200002850320019008400002092
:1049B000000001400024F400003801408EE30A4268
:1049C000E512000800E100E006020000010200001C
:1049D0000202000003020000651C0008C91C000858
:1049E000D51C0008371600083F16000821020000F9
:1049F000A8540132002B00D17DE000230131B8E73B
:104A0000919A929992929191AB93012308262B70DF
:104A1000909B0493939B949A05939A4200D376E5D6
:104A2000FFA9ACAC919B8C666831FFA973AFCE66D1
:104A30000593D2186C312300380004990096FEF7D4
:104A4000B9F93B78FFAD6835002B00D05FE5DF4B4F
:104A5000AC9A9A4200D05AE5E3882800A28891A92E
:104A6000FDF7C7F82B78002BD4D050E5D84B9E42E9
:104A700000D0F1E6039BDA6B80239B021343039A79
:104A8000D363E9E6332808D003D8312805D00023C2
:104A9000AEE707005D3F012FF9D8059F7840A7E7F3
:104AA00059424B415B421A408323013A5B009A42D0
:104AB00021D2002003006168824203D90D5C0130DD
:104AC0005B19F9E7DB43885CDBB2984213D104231E
:104AD000FF33609163930831889BFF31619262914B
:104AE000002B70D0E06860A99847002806D1B94B28
:104AF00006AA9B18D8770023237660E0629D0020E9
:104B00002F00639B6268EB18BB4203D039780137F2
:104B10004018F9E7C3B2D9430493CBB203937E2381
:104B200013707D3BBD4217D07D20404284462E78D5
:104B3000B4446046012804D930000221884311287A
:104B400005D105994E407D21D15401339BB2D654F5
:104B500001339BB20135E5E7039D7D3D012D04D96D
:104B600002250398A843112807D1DF210498484063
:104B700003907D20D05401339BB27E200399D15401
:104B8000591C89B2505421684869002806D08821F0
:104B9000002306AA890052181370ACE702339BB2B7
:104BA000D3184A618B610B681B681A6880231168EF
:104BB0000B431360882206AB92009B1818706CA8F8
:104BC000FEF7DEFBB5E6834A06A95218D37792E7D3
:104BD0004426062116A8FDF728FC200006AB9B19E9
:104BE0001B78169A98400300516816A80B4353602F
:104BF000FDF7F8FB06AA9219413E30001278022711
:104C00005200904016990B6883433800904003434C
:104C10000B6028000621FDF708FC2979199B8C40C0
:104C20005A68280014435C60FDF7DCFB30002979EA
:104C3000199A490088408F40136883431F431760C7
:104C40001CA8FDF704FC039B634A5B6D63481A4094
:104C500080239B011343039A61495365039B2831C9
:104C6000DA6B80239B031343039AD3635C4B0D9150
:104C70009B6A1A68024080201A601A68800002430A
:104C80001A60097949B20E40002900DA8FE0FF2549
:104C9000C024F600B54053488A0892001218A400B8
:104CA0001059A843105180221868920202431A60DA
:104CB0009A684D48832402409A609A68A400920A38
:104CC00092029A60D4229868173902439A6080222F
:104CD0009868120202439A600DAA8692002206A8E2
:104CE000001902703E48C900411886A848633F4831
:104CF0008D920863202118688A9201438B928C92CE
:104D00008E928F92196008211868AB3C014319609C
:104D100004211868FF3C014319600221186801430F
:104D20001960079B86A94C9373914CA97491FFA9B4
:104D300068317591B62106A8FF31091878927992E9
:104D40007A92CA77DB2149000918CA77284973ABE0
:104D500088938791FFAB4FA96833539153A97791FB
:104D6000609324495793FFAB683376915892009231
:104D70001900220086A86194FDF7E4F90494D62274
:104D800006ABFF329B181B78002B4CD0002406ABDF
:104D90009B181C70B62306AAFF339B18DB7FDEB27C
:104DA000A34244D07A9B012B28D0002430E0FF247A
:104DB0000F22F600B4400A40083A0F4892089200C9
:104DC0001218D069A043D0616DE7C04646696C6592
:104DD0000044004001020000FFCFFFFFFFF0FFFF93
:104DE0008400002000E100E0FFFBFFFF99130008B2
:104DF000571D00085716000800ED00E0759B1B7852
:104E0000062BD2D1789B002BCFD078A8FDF73CFFA2
:104E10007599049A0B007398009460916192579170
:104E20005894FDF78FF96CA8FEF7AAFAA7E70321BB
:104E30007A9801F011FA0C000229B6D17A9A759B82
:104E4000A2421BD9749D19196A782800AA70FDF72F
:104E500008F9AA78EB785A406B78AB70759B1919F2
:104E600089789142A1D1195DB21C9954759B191989
:104E700049789E19F17003341600DFE76A46FF2077
:104E80001978128B090202400A43597882430A4377
:104E900069460A8360A90A809A1C8233639340237F
:104EA000769C619262966493002CB1D07798A0476B
:104EB000649F01233C001C401F4200D075E7639BA8
:104EC0001E000393039A759BB21ABA42A0D232789D
:104ED00031001A55759B72781B195A70759B749D19
:104EE00005936B782800AB70FDF7BBF8AA78EB78D8
:104EF00002365A406B78AB70059B1B199A700334CD
:104F0000E0E7104B1049172019611B2119750F4953
:104F100000229962190028310871180005219A6150
:104F2000DA611A625A621A635A639A63DA63443026
:104F300001390260426008300029F9D15960996056
:104F40007047C046840000200038014000540040F3
:104F5000F8B543005F081B0E7F3B06001D00041CD4
:104F6000162B16DC002B1CDB184F1F41074228D0E4
:104F7000174900F00BFA002100F0F4F9002820D0C6
:104F8000002C03DD8020000428410619BE433000B8
:104F9000F8BDFF23DB059F42FAD3011C00F0F6F9B0
:104FA000F6E70B4900F0F2F9002100F0DBF90028E8
:104FB00007D0002C07DB201C002FE9D0FE20800545
:104FC000E6E7201CE4E780200006E1E7FFFF7F0022
:104FD000CAF24971F8B543005F081B0E7F3B06001B
:104FE0001D00041C162B16DC002B1CDB174F1F4169
:104FF000074228D0164900F0C9F9002100F0B2F9A3
:10500000002820D0002C03DA802000042841061953
:10501000BE433000F8BDFF23DB059F42FAD3011CDD
:1050200000F0B4F9F6E70A4900F0B0F9002100F009
:1050300099F9002807D00020002CEBDA201C002F63
:10504000E8D00448E6E7201CE4E7C046FFFF7F0005
:10505000CAF24971000080BF70B5041C00F02CF842
:10506000124B051C1B785BB2013310D0201C00F0E2
:1050700049F900280BD00E49201C00F073F90028D4
:105080000DD10C49201C00F059F9002801D1281C31
:1050900070BD01F03BF9222300250360F7E701F022
:1050A00035F9FF252223ED050360F0E7000000201D
:1050B0008071B142B5F1CFC2F0B5FF22D6464F465E
:1050C000464643000100C0B5041C5B08D20593426C
:1050D0006BD8C50F934200D1C3E07A4A90426BDC93
:1050E000002800DAB7E0784A93426AD9774A9342B7
:1050F00000D9C3E0764BAE00F158201C00F0C6FD8D
:10510000744B8046F35801209946401B451B494685
:10511000404600F0BBFD011C061C041C00F09CFC7A
:105120006D49071C00F098FC6C4900F0AFFD391C7C
:1051300000F092FC6A4900F029F9391C00F08CFC5F
:10514000684900F0A3FD391C00F086FC664900F0B8
:105150001DF9391C00F080FC011C301C00F096FD8C
:105160008246071C002D5FD0011C301C00F074FC2F
:10517000041C8020391CC00500F088FD011C201C87
:1051800000F0A0FA011C484600F080FD414600F006
:105190007DFD011CFE20800500F078FD2B00041C25
:1051A0007D3362DBE805001901E000F0EFF8E0BCB8
:1051B000BA46B146A846F0BD4C49081C00F04CFC6C
:1051C000F5E7C6229205934209D24849201C00F017
:1051D000DDF8FE21890500F0C5F800286BD1211CFF
:1051E000201C00F039FC3C49051C00F035FC3B4913
:1051F00000F04CFD291C00F02FFC394900F0C6F8E6
:10520000291C00F029FC374900F040FD291C00F062
:1052100023FC354900F0BAF8291C00F01DFC011CE4
:10522000201C00F033FD82465146201C00F014FC87
:105230008021051CC905504600F028FD011C281CD2
:1052400000F040FA211C00F021FD011CFE20800529
:1052500000F01CFDABE7264A934200D843E700204C
:10526000A5E7002DA3D00020A1E72800D8216430B5
:10527000C0050019090500F0EFFB98E71D49201C47
:1052800000F0EAFB1C4BAD00E95800F07FF800F09D
:10529000C5FE050000F0E2FE1849061C00F0DCFB2C
:1052A000011C201C00F0F2FC15498046301C00F067
:1052B000D3FB81462BE7FE21201C890500F066F810
:1052C00075E7C0461772B1421872B13E9115853F1D
:1052D000B4630008BC6300084CBB31330EEADD3513
:1052E00055B38A38610B363BABAA2A3ECAF24971E4
:1052F000B5F1CF423BAAB83FAC6300088071313FA3
:10530000D1F71737FF2243005B080120D2059342F3
:1053100000DB00207047C0468446081C6146FFE75A
:105320001FB500F04FFB002801D40021C8421FBD6B
:1053300010B500F0D3FA4042013010BD10B500F0B6
:1053400041FB002801DB002010BD012010BDC0463C
:1053500010B500F037FB002801DD002010BD012052
:1053600010BDC04610B500F0E1FA002801DC0020B5
:1053700010BD012010BDC04610B500F0D7FA0028BE
:1053800001DA002010BD012010BDC046F0B5464630
:10539000D6464F464D024202C0B5520A6E0A470039
:1053A000B0463F0E4E00C40FD00094463B008246EC
:1053B000360EC90FAD098C426DD0B81B814600284E
:1053C0004DDD002E00D188E0FF2F5AD08023DB0472
:1053D0001D434B4601221B2B0ADC2B004A46494643
:1053E000D3402022521A95402A00551EAA411A4342
:1053F00053469A1A530100D4B9E09201960930003D
:1054000000F072FE05388640874200DDD4E03300AC
:10541000C71B20200137FB40C71BBE403200561E71
:10542000B24100271A43530704D00F231340042B23
:1054300000D00432530100D49CE07B1CFE2F00D12D
:105440009AE09201520A9446DBB2D8056346E4071B
:1054500018432043E0BCBA46B146A846F0BD002838
:1054600049D0F31B002F00D0B6E05246002A60D08E
:10547000013B002B00D1FCE0FF2E00D0B4E00C007B
:105480004246002A78D08020C00310434202530ACB
:105490009C46FF23D9E7B91B002971DD002E3FD0C0
:1054A000FF2FEED08023DB041D4301221B2907DCE4
:1054B0002A002023CA40591A8D406B1E9D412A4361
:1054C0005244530153D50137FF2F55D001237B4957
:1054D000134052080A401A43A5E7002D2CD001239F
:1054E0005B429C46E1444B46002B00D1ADE0FF2FD0
:1054F00000D06EE7C5E7FE207E1C304260D1002F51
:1055000000D093E05246002A00D1B6E0002D9CD096
:10551000521B500100D4C3E053460C00EA1A82E744
:10552000002D09D00139002900D18BE0FF2FBCD11B
:10553000A7E70C0042463700FF2FA2D05202530AC1
:105540009C46FBB281E7FE210137394265D1002B31
:105550007ED1002800D1AAE0002D00D175E72A00F5
:1055600052440027530102D5554B01371A405307C7
:1055700000D05AE7D208DFE70022FF23944664E711
:105580000029E0D0F31B002F3ED0FF2E00D177E79B
:1055900080220100D20411438A4601221B2B08DC21
:1055A000524620215046DA40CB1A9840431E98417B
:1055B00002433700521984E7414A3F1A324032E72A
:1055C00053465E1B73012DD4002E00D017E7002236
:1055D00000240023944638E7FF2E00D14FE78022B5
:1055E0005046D2041043824601221B2B08DC52464F
:1055F00020245046DA40E31A9840431E9841024363
:105600000C003700AA1AF5E6002893D0013B002BC6
:105610004FD0FF2EC1D1424633E7FF2FACD05544C7
:105620006A08A4E753460C00EE1AE8E65346002B3E
:1056300028D1002D00D022E78023DB039C460024E4
:10564000FF2302E72A0052443BE753465A1BD1E6A8
:10565000002800D114E7002D00D112E78023DB03DE
:105660001A4200D10DE74146194200D009E74246EF
:1056700007E70C003700AA1ABCE6002D13D00C0077
:10568000C446E2E6002D00D1FBE68023DB031A428C
:1056900000D1F6E64046184200D0F2E60C00EFE6F4
:1056A000002A00D063E7002200249446CDE6C446D9
:1056B000CBE62A003700524403E7C046FFFFFF7DD8
:1056C000FFFFFFFBF0B54F464646D6464502C0B544
:1056D00047000C1C6D0A3F0EC60F002F66D0FF2F2F
:1056E0006CD00023EA00802599469A46ED041543C4
:1056F0007F3F60026100430A9846090EE40F0029CB
:1057000048D0FF2910D08022D800D204024390460E
:1057100000207F394A4633007F1A02436C499200C9
:105720008A586340DBB29746002B6DD10220FF3FC1
:1057300033E0002398462600454682465346022B16
:1057400000D17FE0032B00D194E0012B17D038006B
:105750007F3000285FDD6B0704D00F232B40042B24
:1057600000D004352B0103D538005A4B80301D4042
:10577000FE2867DCAD016D0AC0B202E01E00002009
:105780000025C0052843F6073043E0BCBA46B146C1
:10579000A846F0BD002B2BD101204A4633004E49CC
:1057A000024392008A586340DBB29746002D13D122
:1057B00004239946033B00279A469AE7002D05D11A
:1057C00008239946063BFF279A4692E70C23994601
:1057D000093BFF279A468CE7280000F085FC7627D6
:1057E000431F9D4000237F4299469A463F1A80E717
:1057F000180000F079FC4246431F76219A40494246
:10580000091A9046002085E7FF21032082E71E0049
:10581000FF200025B5E701231B1A1B2BAFDC9E37A9
:105820002900BD40D9406A1E95410D436B0704D045
:105830000F232B40042B00D004356B0144D50120ED
:1058400000259EE7FF2000259BE780250026FF20FE
:10585000ED0396E7002398468020C003054209D057
:105860004346034206D1454605436D022600FF200C
:105870006D0A86E78020C00305436D02FF206D0A94
:105880007FE741466A014801824219D21B21002567
:10589000013F012614006D005200002C01DB9042F4
:1058A00001D8121A354301390029F3D1501E824123
:1058B00038007F301E001543002800DD4BE7AAE7C3
:1058C0001A210125121AE4E7AD0100206D0A58E7FC
:1058D000C4630008FFFFFFF70464000870B54200CE
:1058E0004E024C0045026D0A120EC30F760A240EBA
:1058F000C90FFF2A0FD0FF2C11D00120A24200D0E7
:1059000070BDB542FCD18B420DD0002AF8D12800E1
:10591000451EA841F4E70120002DF1D1EBE701205D
:10592000002EEDD1E9E70020EAE7C046F0B54200DD
:1059300046024D024C00C30F760A120E6D0A240E69
:10594000C80FFF2A1FD0FF2C10D0002A1FD1714290
:105950007141002C01D1002D1ED000290ED18342AF
:105960001ED00221581E08400138F0BD002D26D15E
:10597000002AF4D1714271410029F0D00028F4D1FD
:1059800001204042F1E7002E19D1FF2CEED0002C6F
:10599000E5D1002DE3D1E4E70020002EE5D0E0E7DB
:1059A000A24205DCEADBAE4202D8E7D30020DCE706
:1059B000414241414842022108400138D5E70220D6
:1059C0004042D2E7F0B5420046024D024C00C30F00
:1059D000760A120E6D0A240EC80FFF2A0DD0FF2C76
:1059E0000FD0002A23D171427141002C0FD1002D1C
:1059F0000DD10020002E14D00DE0002E10D1FF2C70
:105A000015D1002D0CD1002A03D17142714100291A
:105A100008D1834210D00221581E0840013800E00E
:105A20000220F0BD0028FCD101204042F9E7002C03
:105A3000EFD1002DEDD1EEE7A24205DCF2DBAE4264
:105A400002D8EFD30020ECE7414241414842022115
:105A500008400138E5E7C046F8B557464E4645468A
:105A6000DE464402E0B545000F1C640A2D0EC60F49
:105A7000002D47D0FF2D4DD0002380209A469B4615
:105A8000E400C00404437F3D7802430A99467A004B
:105A9000FB0F9846120E4B4644D0FF2A11D0D80077
:105AA0008023DB040343994600207F3AAD18474624
:105AB00053467740691C0F2B3FD8724A9B00D3583E
:105AC0009F46FF35002B00D079E0524602231A434F
:105AD00092460220EBE747464C4683465B46022B44
:105AE00028D0032B00D1C6E0012B4FD10020002489
:105AF000C005FF0720433843F0BCBB46B246A94669
:105B0000A046F8BD002C71D104239A46033B002522
:105B10009B46B9E7002C63D108239A46063BFF2534
:105B20009B46B1E7002B50D1524601331A439246AF
:105B30000120BCE7FF200024DAE74846260C2404B5
:105B4000220C0404240C4B4620001B0C50437443CD
:105B50005A435E431219030C9B189C4203D98022BE
:105B600052029446664400041A04000C1218940170
:105B7000601E84411B0C920E9B1914439B011C4315
:105B80001B0172D50120630804401C4308007F30CC
:105B900000283CDD630704D00F232340042B00D0F2
:105BA0000434230103D580310800374B1C40FE2804
:105BB000C0DCA401640AC0B29AE737008EE75246FF
:105BC00003231A439246032071E7484600F08CFAFB
:105BD0004A46431F9A402D1A91460020763D66E7BB
:105BE0000C239A46093BFF259B464DE7200000F019
:105BF0007BFA7625431F9C4000236D429A469B46C4
:105C00002D1A41E780240027FF20E40370E70123D9
:105C10001B1A1B2B00DD69E79E3120008C40D84009
:105C2000631E9C410443630704D00F232340042BCD
:105C300000D0043463011AD50120002458E78020E5
:105C4000C003044209D04B46034206D14C460443EC
:105C500064024746FF20640A4AE78020C0030443E9
:105C600064023700FF20640A42E729008EE7A4019E
